:100000000C94EE000C943F050C9418050C9416010A
:100010000C9416010C9416010C9416010C94160104
:100020000C9416010C9416010C9416010C941601F4
:100030000C9416010C9416010C9416010C941601E4
:100040000C94CE040C9416010C940A040C94E40352
:100050000C9416010C9416010C9416010C941601C4
:100060000C9416010C941601301735173A173F17E8
:10007000441749174E177615531758174E414E49D6
:100080004E495459494E46CDCCCC3D0AD7233C1756
:10009000B7D13877CC2B329595E6241FB14F0A00A3
:1000A0000020410000C84200401C4620BCBE4CCA93
:1000B0001B0E5AAEC59D74696E6974204C6F5261F7
:1000C000206661696C656400507265616D626C6583
:1000D0004C656E6774683A200042616E64776964AB
:1000E00074683A2000436F64696E672052617465DA
:1000F0003A20342F00537072656164204661637446
:100100006F723A20534600545820467265717565E7
:100110006E63793A20005258204672657175656E9B
:1001200063793A20005B7472616E736D69745D204F
:1001300052583220454E44005B7472616E736D6993
:10014000745D205258322053746172742E005B74B7
:1001500072616E736D69745D2052583120456E6412
:100160002E005B7472616E736D69745D205258313C
:100170002053746172742E00000000080002010018
:1001800000030407000000000000000072756E2DDF
:100190006272696467650A000A000A0000000000D4
:1001A000250028002B0000000000240027002A0062
:1001B000040404040404040402020202020203030D
:1001C0000303030301020408102040800102040815
:1001D0001020010204081020D217C41711241FBEDA
:1001E000CFEFD8E0DEBFCDBF25E0AAEEB2E001C080
:1001F0001D92A33FB207E1F712E0A0E0B1E0E2EA0E
:10020000FEE302C005900D92AA3EB107D9F710E0B7
:10021000CDEED0E004C02197FE010E949C1CCC3E94
:10022000D107C9F70E9408120C94441F0C940000D7
:1002300041E861E88AE095E00E9466050E946F0F40
:1002400040E06DE88AE095E00E94660540E062EAE1
:100250008AE095E00E94660581E090E008950E94A2
:100260002F1F0F931F93CF93DF93EC018881998108
:10027000009729F02A813B812617370788F48B01E4
:100280006F5F7F4F0E94651E009761F0998388839E
:100290001B830A832C813D81232B11F4FC011082E6
:1002A00081E001C080E0DF91CF911F910F9108950F
:1002B000EF92FF920F931F93CF93DF93EC017B019B
:1002C0008A01BA010E9431012881398181110DC052
:1002D0002115310519F0C9010E94CD1D198218821E
:1002E0001D821C821B821A8206C01D830C83B701EB
:1002F000C9010E943D1FCE01DF91CF911F910F9147
:10030000FF90EF900895FC01808191810C94CD1DA8
:10031000FC011182108213821282158214826115EF
:10032000710551F0FB0101900020E9F73197AF0111
:10033000461B570B0C9458010895CF92DF92EF9211
:10034000FF920F931F93CF93DF936C017A018B0180
:10035000C0E0D0E0CE15DF0589F0D8016D918D01A8
:10036000D601ED91FC910190F081E02DC601099537
:10037000892B11F47E0102C02196ECCFC701DF91D9
:10038000CF911F910F91FF90EF90DF90CF90089544
:10039000FC01538D448D252F30E0842F90E0821B8B
:1003A000930B541710F0CF96089501970895FC0110
:1003B000918D828D981761F0828DDF01A80FB11D9C
:1003C0005D968C91928D9F5F9F73928F90E00895C0
:1003D0008FEF9FEF0895FC01918D828D981731F07A
:1003E000828DE80FF11D858D90E008958FEF9FEFCE
:1003F0000895FC01918D228D892F90E0805C9F4FA4
:10040000821B91098F739927089588E295E00E94D5
:10041000F90121E0892B09F420E0822F0895FC01E5
:10042000848DDF01A80FB11DA35ABF4F2C91848D7D
:1004300090E001968F739927848FA689B7892C93B2
:10044000A089B1898C9180648C93938D848D98134D
:1004500006C00288F389E02D80818F7D8083089516
:10046000EF92FF920F931F93CF93DF93EC0181E004
:10047000888F9B8D8C8D981305C0E889F9898081C0
:1004800085FD24C0F62E0B8D10E00F5F1F4F0F73FC
:100490001127E02E8C8DE8120CC00FB607FCFACFA6
:1004A000E889F989808185FFF5CFCE010E940F028E
:1004B000F1CF8B8DFE01E80FF11DE35AFF4FF08263
:1004C0000B8FEA89FB898081806207C0EE89FF89F2
:1004D0006083E889F98980818064808381E090E08D
:1004E000DF91CF911F910F91FF90EF900895CF93DF
:1004F000DF93EC01888D8823C9F0EA89FB8980812C
:1005000085FD05C0A889B9898C9186FD0FC00FB6FD
:1005100007FCF5CF808185FFF2CFA889B9898C913E
:1005200085FFEDCFCE010E940F02E7CFDF91CF9183
:10053000089580E090E0892B29F00E940502811146
:100540000C94000008953FB7F894809106049091B0
:100550000704A0910804B091090426B5A89B05C022
:100560002F3F19F00196A11DB11D3FBFBA2FA92F32
:10057000982F8827820F911DA11DB11DBC01CD01AF
:1005800042E0660F771F881F991F4A95D1F708959B
:1005900008950895CF93DF931F92CDB7DEB7698397
:1005A000DC01ED91FC910280F381E02D41E050E00F
:1005B000BE016F5F7F4F09950F90DF91CF91089536
:1005C00008950895CF93DF931F92CDB7DEB7698367
:1005D000DC01ED91FC910280F381E02D41E050E0DF
:1005E000BE016F5F7F4F09950F90DF91CF91089506
:1005F000CF93DF9300D01F92CDB7DEB729E42983D4
:10060000FC0126852A836B8343E050E0BE016F5FC7
:100610007F4F848595850E94190C81E090E00F90B2
:100620000F900F90DF91CF910895AF92BF92CF922C
:10063000DF92EF92FF920F931F93CF93DF9300D03F
:100640001F92CDB7DEB7FC01E85AFF4F20812F3F44
:1006500011F15A019B0147E64983319640814A8353
:100660003997CC24C394D12CCE0103967C0185010B
:1006700042E050E0BE016F5F7F4F808191810E9418
:100680001B0A8B81882329F090E09195819591092F
:1006900004C0C50102C08FEF9FEF0F900F900F9025
:1006A000DF91CF911F910F91FF90EF90DF90CF904E
:1006B000BF90AF900895DC01ED91FC910190F08125
:1006C000E02D0994EF92FF920F931F93CF93DF9346
:1006D0008C017B01C0E0D0E0F701EC0FFD1F6491BD
:1006E000662361F0D801ED91FC910190F081E02D3D
:1006F000C8010995892B11F02196EECFCE01DF912B
:10070000CF911F910F91FF90EF90089561157105A2
:1007100079F0FB0101900020E9F73197AF01461B0A
:10072000570BDC01ED91FC910280F381E02D0994DF
:1007300080E090E008954F925F926F927F92EF92E7
:10074000FF920F931F93CF93DF93CDB7DEB7A1979F
:100750000FB6F894DEBF0FBECDBF7C01FA01CB010E
:1007600019A2223008F42AE08E010F5D1F4F422E9D
:10077000512C612C712CBF01A30192010E947A1CA3
:10078000F901CA01015011096A3014F4605D01C019
:10079000695CD8016C93232B242B252B61F7B801BE
:1007A000C7010E948603A1960FB6F894DEBF0FBE64
:1007B000CDBFDF91CF911F910F91FF90EF907F9070
:1007C0006F905F904F9008951F920F920FB60F9207
:1007D00011242F933F934F935F936F937F938F9346
:1007E0009F93AF93BF93EF93FF9388E295E00E94AE
:1007F0000F02FF91EF91BF91AF919F918F917F91E8
:100800006F915F914F913F912F910F900FBE0F907D
:100810001F9018951F920F920FB60F9211242F93CD
:100820008F939F93EF93FF93E0913805F0913905F3
:100830008081E0913E05F0913F0582FD12C09081DC
:10084000809141058F5F8F7320914205821751F08F
:10085000E0914105F0E0E85DFA4F958F8093410506
:1008600001C08081FF91EF919F918F912F910F9007
:100870000FBE0F901F90189590E0FC01E858FE4FB6
:100880003491FC01EC53FE4F2491FC01E055FE4FE6
:10089000E491EE2309F43BC0332339F1333091F076
:1008A00038F43130A9F0323001F584B58F7D12C0B3
:1008B000373091F03830A1F03430B9F480918000B5
:1008C0008F7D03C0809180008F77809380000DC062
:1008D00084B58F7784BD09C08091B0008F7703C045
:1008E0008091B0008F7D8093B000F0E0EE0FFF1F8D
:1008F000E456FE4FA591B4918FB7F894EC91611135
:1009000003C020952E2301C02E2B2C938FBF08955A
:100910008F929F92AF92BF92CF92DF92EF92FF920F
:100920006B017C010E94A3024B015C01C114D10444
:10093000E104F104F1F00E94A302DC01CB0188196B
:100940009909AA09BB09883E9340A105B10570F336
:1009500021E0C21AD108E108F10888EE880E83E090
:10096000981EA11CB11CC114D104E104F10419F7B3
:10097000DDCFFF90EF90DF90CF90BF90AF909F9032
:100980008F9008952FB7F89460910204709103043A
:1009900080910404909105042FBF08951F920F9237
:1009A0000FB60F9211242F933F938F939F93AF9382
:1009B000BF938091020490910304A0910404B0912C
:1009C00005043091010423E0230F2D3720F4019614
:1009D000A11DB11D05C026E8230F0296A11DB11D62
:1009E000209301048093020490930304A0930404D1
:1009F000B09305048091060490910704A091080427
:100A0000B09109040196A11DB11D80930604909335
:100A10000704A0930804B0930904BF91AF919F917C
:100A20008F913F912F910F900FBE0F901F901895AF
:100A30001F920F920FB60F9211242F933F934F9353
:100A40005F936F937F938F939F93AF93BF93EF9336
:100A5000FF93E0910201F09103010995FF91EF915D
:100A6000BF91AF919F918F917F916F915F914F91C6
:100A70003F912F910F900FBE0F901F9018951F92CE
:100A80000F920FB60F9211242F933F934F935F93C2
:100A90006F937F938F939F93AF93BF93EF93FF9346
:100AA000E0910001F09101010995FF91EF91BF9153
:100AB000AF919F918F917F916F915F914F913F91F6
:100AC0002F910F900FBE0F901F901895EF92FF92ED
:100AD0001F93CF93DF931F92CDB7DEB77C01162F04
:100AE00060E0FC01868549830E943C04F7019485FF
:100AF00085859CBD8DBD1EBD000049810DB407FEDE
:100B0000FDCF8EB54EBD00000DB407FEFDCF1EB566
:100B100061E0F70186850E943C04812F0F90DF91F0
:100B2000CF911F91FF90EF9008956F7740E00C9464
:100B30006605EF92FF921F93CF93DF931F92CDB77D
:100B4000DEB77C01DC01ED91FC910084F185E02DA4
:100B50000995892B99F06DE0C7010E949505482FF2
:100B600060E0C70149830E949505182F49816DE80F
:100B7000C7010E946605812F90E002C08FEF9FEFB2
:100B80000F90DF91CF911F91FF90EF900895CF9339
:100B9000DF93EC01E881F9810084F185E02D09956E
:100BA000892B59F08E899F8901969F8B8E8B60E0EF
:100BB000CE010E94950590E002C08FEF9FEFDF917C
:100BC000CF910895CF93DF93EC0163E10E949505E7
:100BD000282F30E08E899F89A901481B590BCA0133
:100BE000DF91CF9108958F929F92AF92BF92CF9253
:100BF000DF92FF920F931F93CF93DF931F92CDB796
:100C0000DEB76C01B62E4A0162E279830E94950537
:100C1000F82E90E09C01280D391D79812F3F310578
:100C200031F028F02FEF30E04901881A990A0B2D96
:100C3000172F5801A80CB91C0A151B0541F0F80123
:100C400041918F0160E8C6010E946605F5CF482DED
:100C50004F0D62EAC6010E946605C4010F90DF9144
:100C6000CF911F910F91FF90DF90CF90BF90AF90E9
:100C70009F908F9008950F931F93CF93DF9300D091
:100C8000CDB7DEB78C01FC018189882369F087E745
:100C9000898386858A8342E050E0BE016F5F7F4F83
:100CA000848595850E94190CF801118A0F900F9088
:100CB000DF91CF911F910F910895AF92BF92CF9284
:100CC000DF92EF92FF920F931F93CF93DF9300D0A9
:100CD00000D0CDB7DEB75C0182E58B83D5011F96CE
:100CE000ED91FC915097048115812081318142E082
:100CF000C42ED12CFE0131967F0141E050E0BE01AF
:100D00006D5F7F4F1C968D919C911D970E941B0AD1
:100D10008A81D5011E968C931E971F960D911C916A
:100D200050970115110531F0C8010E948301C801D7
:100D30000E94CD1DF501108A17868981811102C09C
:100D400081E0818B32E7F32EF982D5011E968C91DA
:100D50001E978A8301E010E09E012D5F3F4F42E025
:100D600050E0BE016F5F7F4F1C968D919C911D9747
:100D70000E94040C8B81813039F464E670E080E0DD
:100D800090E00E948804E0CF87E58B83F50186859B
:100D90008C8302E010E09E012F5F3F4F42E050E065
:100DA000BE016D5F7F4F848595850E94040C89810B
:100DB00090E0982F88272A81820F911D0F900F9025
:100DC0000F900F90DF91CF911F910F91FF90EF90B7
:100DD000DF90CF90BF90AF900895CF92DF92EF92C7
:100DE000FF920F931F93CF93DF936C017B01FC0164
:100DF000C785D0890C811D810F5F1F4FB801CE01BF
:100E00000E943101882361F0288139818C819D8184
:100E10006DE972E0820F931F0E943D1F1D830C83BA
:100E2000F601C785D089F70184819581E080F18042
:100E30000C811D81E114F104A9F0009799F0080FCD
:100E4000191FB801CE010E943101882359F0288171
:100E500039818C819D81B701820F931F0E943D1FB4
:100E60001D830C83DF91CF911F910F91FF90EF9025
:100E7000DF90CF900895EF92FF920F931F93CF933F
:100E8000DF937C018B010E943B0686E090E00E948C
:100E9000381DEC01198218821B821A821D821C8265
:100EA0008017910751F0F80160817181611571051A
:100EB00021F0448155810E945801F701D08BC787EA
:100EC000DF91CF911F910F91FF90EF900895EF92D6
:100ED000FF920F931F93CF93DF9300D01F92CDB754
:100EE000DEB7FC012289211118C07C01138A8FE42E
:100EF000898380E48B8386858A839F012C5E3F4FA4
:100F000000E410E043E050E0BE016F5F7F4F848556
:100F100095850E94040CF701828B0F900F900F9023
:100F2000DF91CF911F910F91FF90EF900895CF9394
:100F3000DF93EC010E9467078A89882331F08B894F
:100F4000C80FD11D8C8990E002C08FEF9FEFDF9119
:100F5000CF910895CF93DF93EC010E9467078A89B0
:100F6000882359F081508A8B8B8991E0980F9B8B55
:100F7000C80FD11D8C8990E002C08FEF9FEFDF91E9
:100F8000CF910895CF93DF93EC010E9467078A8980
:100F900090E0DF91CF910895EF92FF920F931F930E
:100FA000CF93DF9300D01F92CDB7DEB77C0128E549
:100FB000E20EF11CF70120812F3FB9F026E62983CC
:100FC000319620812A83399701E010E09E012D5F40
:100FD0003F4F42E050E0BE016F5F7F4F80819181C3
:100FE0000E94040C8FEFF70180830F900F900F90F9
:100FF000DF91CF911F910F91FF90EF900895EF92A5
:10100000FF920F931F93CF93DF9300D01F92CDB722
:10101000DEB7FC012485211128C07C01158687E4F8
:1010200089838FE38B83E75AFF4F80818A839701FF
:10103000205F3F4F399700E410E043E050E0BE01ED
:101040006F5F7F4F808191810E94040C9C01215031
:1010500031092E3F3F4F18F0F701148606C0F70103
:1010600095859F5F9587815084870F900F900F9093
:10107000DF91CF911F910F91FF90EF900895CF9343
:10108000DF93EC010E94FF078C8590E0DF91CF9108
:101090000895CF93DF93EC010E94FF078C8588238E
:1010A00031F08D85C80FD11D888990E002C08FEF87
:1010B0009FEFDF91CF910895CF93DF93EC010E94D2
:1010C000FF078C85882359F081508C878D8591E0AE
:1010D000980F9D87C80FD11D888990E002C08FEFBF
:1010E0009FEFDF91CF910895CF93DF93EC0180E2E2
:1010F00091E099838883CE010E94CC07CE018E5A5D
:101100009F4FDF91CF910C9483016F927F928F92CA
:101110009F92AF92BF92CF92DF92EF92FF920F9386
:101120001F93CF93DF93CDB7DEB728970FB6F89410
:10113000DEBF0FBECDBF5C018B01FC0113821282AA
:1011400088EE93E0A0E0B0E084839583A683B78324
:1011500080E291E0918380833501F0E56F0E711C90
:10116000F301318320837501F2E5EF0EF11C61ED8F
:1011700071E0C70148870E948801450188E5880E13
:10118000911C4885F40140830115110569F0F801AF
:1011900001900020E9F73197AF01401B510BB801D6
:1011A000C7010E9458010EC0F7018081918100970C
:1011B00011F00E94CD1DF701118210821582148258
:1011C0001382128282E7898387E78A8381E68B8391
:1011D00086E48E83F4018081FE01E80FF11D818198
:1011E0008F8381E090E0F50197878687EA5AFF4F69
:1011F00000811181F7012081318182E0C82ED12C3C
:10120000CE0104967C0142E050E0BE016A5F7F4F50
:10121000F301808191810E941B0A8C81882321F037
:101220008FEFF401808307C0F501E75AFF4F8D81EE
:101230008083F501148628960FB6F894DEBF0FBEA2
:10124000CDBFDF91CF911F910F91FF90EF90DF9075
:10125000CF90BF90AF909F908F907F906F900895A8
:10126000CF93DF93EC018A89811108C08D899E8913
:10127000009711F00E94CD1D81E08A8B88899989A1
:10128000009721F00E94CD1D198A188ADF91CF9115
:101290000895EF92FF920F931F93CF93DF9300D0A7
:1012A000CDB7DEB7FC012685211115C07C0117865C
:1012B00080E7898380E28A832089318900E210E017
:1012C00042E050E0BE016F5F7F4F848595850E94AC
:1012D000040CF70186870F900F90DF91CF911F913B
:1012E0000F91FF90EF900895CF93DF93EC010E9450
:1012F00049098E85882341F08F85E889F989E80FAF
:10130000F11D808190E002C08FEF9FEFDF91CF91C0
:101310000895CF93DF93EC018D819E81DC01ED91E7
:10132000FC910084F185E02D09951816190654F4F6
:101330008D819E81DC01ED91FC910284F385E02D8D
:101340000995EACFDF91CF910895FC012381348183
:101350002627022E2295207F2025032E322F22952C
:101360002F700226269532272327220F220F220FC5
:101370002025348323830895089580E090E0089524
:10138000CF93DF93EC010E9449098E85882369F091
:1013900081508E87E889F9898F8591E0980F9F8722
:1013A000E80FF11D808190E002C08FEF9FEFDF9189
:1013B000CF910895CF93DF93EC010E9449098E8568
:1013C00090E0DF91CF9108958F929F92AF92BF925C
:1013D000CF92DF92EF92FF92CF93DF93EC016B01FC
:1013E0000E94C2044B015C01E12CF12C8D819E8195
:1013F000DC01ED91FC910284F385E02D099597FFC6
:101400000FC00E94C204DC01CB0188199909AA0906
:10141000BB098C159D05AE05BF0540F38FEF9FEF0F
:10142000DF91CF91FF90EF90DF90CF90BF90AF9082
:101430009F908F9008952F923F924F925F926F925C
:101440007F928F929F92AF92BF92CF92DF92EF9254
:10145000FF920F931F93CF93DF93CDB7DEB72B97F8
:101460000FB6F894DEBF0FBECDBF9B878A875B01A6
:101470001901FD82EC823A01600E711E872C7B827D
:10148000912C44244A94542C9B01240F351F3F83F4
:101490002E839101200F311F39872887EA85FB852C
:1014A0008085981608F036C1AA85BB8514965C9293
:1014B0004E92139715968D919C911697DC01ED91A4
:1014C000FC910190F081E02D6FEF09956FEF8A8517
:1014D0009B850E94A509EA85FB8585819681DC01B3
:1014E000ED91FC910190F081E02DAA85BB856C9176
:1014F0000995EA85FB856081CF010E94A509AA852F
:10150000BB8515968D919C911697DC01ED91FC9110
:101510000190F081E02D682D09956B818A859B856E
:101520000E94A509EA85FB8585819681DC01ED9104
:10153000FC910190F081E02D662D0995662D8A853C
:101540009B850E94A50975012E813F81E216F30655
:10155000B1F0EA85FB85858196818701DC01ED91FB
:10156000FC910190F081E02DD7016D917D010995ED
:10157000F80160818A859B850E94A509E5CF7101EC
:10158000AA85BB8515968D919C91169728853985DE
:10159000E216F30691F08701DC01ED91FC910190D8
:1015A000F081E02DD7016D917D010995F8016081F1
:1015B0008A859B850E94A509E3CFDC01ED91FC9112
:1015C000AA85BB8514966C910190F081E02D099558
:1015D000EA85FB8585819681DC01ED91FC91019086
:1015E000F081E02DAA85BB8513966C91099564E680
:1015F00070E08A859B850E94E4098F3F910509F080
:101600007DC0EA85FB85548243826FEFCF010E9443
:10161000A50965E070E08A859B850E94E409AA859A
:10162000BB856C91262F30E08217930709F066C0C6
:10163000CD010E94A5096AE070E08A859B850E9421
:10164000E4097C0197FD5AC0682F8A859B850E941A
:10165000A5096AE070E08A859B850E94E4098C01F7
:1016600097FD4CC0682F8A859B850E94A509EA8258
:101670001982E981FA810E0F1F1FE12CF12C65E020
:1016800070E08A859B85E016F106A9F0EC14FD0454
:1016900091F00E94E40997FD0AC0EC81FD81EE0DF6
:1016A000FF1D8083682F8A859B850E94A509FFEF17
:1016B000EF1AFF0AE4CF0E94E4097C0197FD1EC0E7
:1016C00065E070E08A859B850E94E40997FD16C05D
:1016D000FE2CEE248E0D9F1DAA85BB8513962D91A1
:1016E0003C9114972817390749F48C918F5F8C939C
:1016F000C801C016D10680F4C6010EC0939464E6FA
:1017000070E080E090E00E9488048A859B850E94BA
:101710008909C4CE8FEF9FEF2B960FB6F894DEBFEA
:101720000FBECDBFDF91CF911F910F91FF90EF9032
:10173000DF90CF90BF90AF909F908F907F906F90F1
:101740005F904F903F902F9008958F929F92AF920D
:10175000BF92CF92DF92EF92FF920F931F93CF939E
:10176000DF931F92CDB7DEB75C019B014A01DC011C
:1017700052968C91811105C07B018B01040F151FBE
:1017800031C080E58983C12CD12CE12CF12C8A0158
:1017900041E050E0BE016F5F7F4FF5018485958584
:1017A0000E941B0A22C0D5015596ED91FC915697D7
:1017B00053968C91539791E0980F53969C93D70131
:1017C0009D917D01E80FF11D9083F5019389848936
:1017D000981308C00190F081E02D0680F781E02D7C
:1017E000C5010995E016F106F1F6C4010F90DF91ED
:1017F000CF911F910F91FF90EF90DF90CF90BF900E
:10180000AF909F908F900895CF92DF92EF92FF92CA
:101810000F931F936801790100E010E020E030E0B1
:101820000E941B0A1F910F91FF90EF90DF90CF90C5
:1018300008950F931F9300E010E020E030E00E9435
:10184000040C1F910F910895CF93DF93FC0122891F
:1018500021110BC0EC01438950E0658976898485AC
:1018600095850E94190C81E08B8BDF91CF910895B3
:10187000CF93DF9300D0CDB7DEB7DC0152968C91C9
:101880005297882379F080E589836A8342E050E0AB
:10189000BE016F5F7F4F1C968D919C911D970E949A
:1018A000190C1FC05596ED91FC91569753968C914B
:1018B000539791E0980F53969C935397E80FF11D1F
:1018C000608353969C91539754968C915497981398
:1018D00008C0ED91FC9111970680F781E02DCD01B4
:1018E000099581E090E00F900F90DF91CF910895DE
:1018F000BF92CF92DF92EF92FF920F931F93CF93FD
:10190000DF93CDB7DEB72E970FB6F894DEBF0FBECC
:10191000CDBF7C01C7010E94890968EE73E080E0B9
:1019200090E00E948804D70115968D919C9116979E
:10193000DC01ED91FC910084F185E02D09951816EC
:10194000190644F385E0D82ECC24C39492E3B92E33
:10195000EEE2F1E0DE0111968D2D01900D928A9557
:10196000E1F7F701C08645E050E0BE016F5F7F4FB1
:10197000C7010E94190C63E0D70115968D919C91C7
:1019800016970E945B036AEF70E080E090E00E948F
:1019900088046AE971E0F701858196810E946203FB
:1019A0006AEF70E080E090E00E94880468E971E0EE
:1019B000D70115968D919C9116970E94620364EF52
:1019C00071E080E090E00E9488046CE871E0F7012B
:1019D000858196810E94620364EF71E080E090E06F
:1019E0000E948804C7010E948909E3E3F1E0DE0157
:1019F00016968D2D01900D928A95E1F7D7011896D4
:101A0000BC9204E010E09E01255F3F4F45E050E0AE
:101A1000BE016A5F7F4FC7010E94040C8F3FBFEF7A
:101A20009B0739F468EE73E080E090E00E94880440
:101A30008FCF2B852111FFCF049701F52C8530E046
:101A40002053310984E6829FA001839F500D112409
:101A50002D8530E0205331096AE0629FC001639F09
:101A6000900D1124840F951F2E8530E020533109ED
:101A7000820F931FF7019283818307C084E690E071
:101A8000D70112969C938E93119782E3F70180877A
:101A90002E960FB6F894DEBF0FBECDBFDF91CF916B
:101AA0001F910F91FF90EF90DF90CF90BF9008951E
:101AB0000E946F0F45E861E88AE095E00E946605A4
:101AC0006AE070E080E090E00E9488040E94BB0F12
:101AD000181619061CF080E090E0089589E090E067
:101AE0000895CF92DF92EF92FF92CF93DF93809190
:101AF000F8029091F9028C30910509F543E26CE807
:101B00008AE095E00E94660542E76DE98AE095E08B
:101B10000E94660544EC6EE98AE095E00E94660545
:101B200045E06FE98AE095E00E9466054CE066EAD0
:101B30008AE095E00E94660540E463EAB4C00E9432
:101B40007F0F6091EE027091EF028091F002909110
:101B5000F1020E945C1A6B017C0120E030EC43EF43
:101B600055E40E94551A18160CF056C020E030E8D3
:101B700042E256E4C701B6010E94551A18160CF04D
:101B80004EC020E030EC43E756E4C701B6010E94A6
:101B9000551A18160CF046C020E030E842EA56E428
:101BA000C701B6010E94551A18160CF03EC020E07D
:101BB00034E244EF56E4C701B6010E94551A1816E4
:101BC000BCF520E034EE42E257E4C701B6010E94C2
:101BD000551A181684F520E034E244E757E4C701AB
:101BE000B6010E94551A18164CF520E034E244EF75
:101BF00057E4C701B6010E94551A181614F520E0E3
:101C000034E244E758E4C701B6010E94551A181699
:101C1000DCF4C9E0D0E01AC0C0E0D0E017C0C1E0F9
:101C2000D0E014C0C2E0D0E011C0C3E0D0E00EC0EC
:101C3000C4E0D0E00BC0C5E0D0E008C0C6E0D0E012
:101C400005C0C7E0D0E002C0C8E0D0E06DE18AE0A6
:101C500095E00E94950524E0CC0FDD1F2A95E1F761
:101C60008F704C2F482B6DE98AE095E00E94660545
:101C7000C091F202D091F302C530D10534F0C930E1
:101C8000D1052CF0C8E0D0E002C0C5E0D0E06DE1A5
:101C90008AE095E00E9495052497CC0FDD1F817F97
:101CA0004C2F482B6DE98AE095E00E94660544E3DD
:101CB00069EB8AE095E00E946605C090EA02D09048
:101CC000EB02E090EC02F090ED027727F7FC7A95BA
:101CD0006F2D5E2D4D2D60EA8AE095E00E9466052D
:101CE0004C2D61EA8AE095E00E9466054BE869E8C0
:101CF0008AE095E00E9466050E946F0F45E861E862
:101D00008AE095E0DF91CF91FF90EF90DF90CF9048
:101D10000C946605CF92DF92EF92FF920F931F9380
:101D2000CF93DF93CDB7DEB7CE50D1400FB6F89446
:101D3000DEBF0FBECDBF6091F4027091F5028091BD
:101D4000F6029091F7020E943A1C0E9420100E9415
:101D5000710D0E94BB0F7C01892BD9F380E091E0CB
:101D6000EAE0F4E0DF019C011D9221503040E1F7F0
:101D70006F0100E010E08AE095E00E94E205892B07
:101D800071F00115B1E01B0751F08AE095E00E9467
:101D9000C705D6018D936D010F5F1F4FECCF25EC6A
:101DA00035E041E063EB72E0CE018B549F4F0E941F
:101DB000850864EC72E0CE018B549F4F0E9486032D
:101DC0006AE18AE095E00E949505D82E60911E0593
:101DD00070911F05072E000C880B990B0E945C1A4E
:101DE00024E832EF4EE45EE40E94551A87FD03C0FA
:101DF0008DE990E002C084EA90E06D2D70E0681BF0
:101E0000790BCE018B549F4F0E94D2106FE972E084
:101E1000CE018B549F4F0E948603B701CE018B5495
:101E20009F4F0E94D210CE018B549F4F0E94CC072F
:101E300025EC35E041E065EA72E0CE01855A9F4F1E
:101E40000E9485088AE0E82E84E0F82EC7018A50B7
:101E50009440801791074CF4F70161917F01CE0106
:101E6000855A9F4F0E945B03F1CFCE01855A9F4F49
:101E70000E94CC0780910A04811117C025EC35E03F
:101E800041E06CE072E0CE0101960E948508CE012F
:101E900001960E94CC0781E090E09093FB02809332
:101EA000FA02CE0101960E947408CE01855A9F4F16
:101EB0000E947408CE018B549F4F0E947408C25F29
:101EC000DE4F0FB6F894DEBF0FBECDBFDF91CF91CE
:101ED0001F910F91FF90EF90DF90CF900895109297
:101EE0002305109222056DE18AE095E00E94950598
:101EF000482F4E7F6DE98AE095E00C946605CF93FC
:101F0000DF93EC01863091052CF08D3091058CF437
:101F1000069789F445EC61EB8AE095E00E9466053E
:101F20004CE067EB8AE095E00E946605C6E0D0E0F1
:101F30000EC0CCE0D0E043EC61EB8AE095E00E947B
:101F400066054AE067EB8AE095E00E9466056EE16F
:101F50008AE095E00E94950594E0CC0FDD1F9A95EC
:101F6000E1F78F704C2F482B6EE98AE095E0DF9106
:101F7000CF910C946605CF93DF9362E18AE095E000
:101F80000E949505C82F0E946F0F4C2F62E98AE0CE
:101F900095E00E946605C6FF27C0C5FD25C01092CA
:101FA0002105109220058091220590912305892B0F
:101FB00011F062E201C063E18AE095E00E949505BC
:101FC000C82FD0E060E18AE095E00E949505482F97
:101FD0006DE88AE095E00E94660541E861E88AE0E4
:101FE00095E00E94660515C061E08AE095E00E94D8
:101FF0009505863861F040E06DE88AE095E00E9442
:10200000660546E861E88AE095E00E946605C0E062
:10201000D0E0CE01DF91CF910895CF93DF93BC0143
:1020200086ED95E00E946203EC016FEC71E086EDB5
:1020300095E00E9486038C0F9D1FDF91CF9108953C
:10204000AF92BF92CF92DF92EF92FF920F931F93C6
:10205000CF93DF9370931F0560931E056B017C0186
:10206000FF0CCC08DC2C76019B01AC016C2D7C2D87
:102070008C2D9C2D03E10E94011DA12CE8E4BE2EB5
:10208000F8EECF2EDD24D394E12CF12C00E010E00B
:102090000E94A41CF22EB32E142FD52FC62FC72EAC
:1020A000D82EE92E00E10E941C1D422F66E88AE02E
:1020B00095E00E9466052F2D3B2D412F5D2F6C2F43
:1020C0007C2D8D2D9E2D08E00E941C1D422F67E85F
:1020D0008AE095E00E9466054F2D68E88AE095E069
:1020E000DF91CF911F910F91FF90EF90DF90CF90F4
:1020F000BF90AF900C94660590E0FC01EC53FE4F4E
:102100002491FC01E055FE4F8491882399F090E0E2
:10211000880F991FFC01EA55FE4FA591B491FC016F
:10212000E456FE4F859194918FB7F894EC91E22B91
:10213000EC938FBF0895CF92DF92EF92FF92CF93EF
:10214000DF936B017C0197FF16C06DE286ED95E091
:102150000E945B03EC0144275527BA014C195D0925
:102160006E097F092AE086ED95E00E949B037C01C1
:10217000EC0EFD1E08C02AE0AB01BC0186ED95E027
:102180000E949B037C016FEC71E086ED95E00E945C
:1021900086038E0D9F1DDF91CF91FF90EF90DF9012
:1021A000CF900895CF92DF92EF92FF920F931F93FB
:1021B000CF93DF938C016B01770FEE08FF08F7FEDA
:1021C00012C06DE20E945B03EC0144275527BA015F
:1021D0004C195D096E097F092AE0C8010E949B0322
:1021E000C80FD91F06C02AE0B701A6010E949B03B1
:1021F000EC016FEC71E0C8010E9486038C0F9D1FFB
:10220000DF91CF911F910F91FF90EF90DF90CF90D2
:1022100008954F925F926F927F928F929F92AF92AA
:10222000BF92CF92DF92EF92FF926B017C019B01F4
:10223000AC010E94751C882319F06EED72E01AC083
:1022400046015701E894B7F82FEF3FEF4FE75FE7FC
:10225000C501B4010E94751C811112C02FEF3FEF20
:102260004FE75FE7C501B4010E94551A181644F400
:1022700062EE72E086ED95E00E9486037C018AC0E2
:102280002FEF3FEF4FE75FE4C701B6010E94701CDC
:1022900018161CF466EE72E0EDCF2FEF3FEF4FE71C
:1022A0005FECC701B6010E94551A87FDF3CF20E00D
:1022B00030E0A901C701B6010E94551A87FF0BC083
:1022C0006DE286ED95E00E945B035C01F7FAF09405
:1022D000F7F8F09402C0A12CB12C2AE037ED43EAC4
:1022E0005BE3C701B6010E94CE1B2B013C010E949B
:1022F000411C6B017C010E945A1A9B01AC01C30175
:10230000B2010E94CD1B2B013C012AE0B701A601BE
:1023100086ED95E00E949B037C01EA0CFB1C6EE2BB
:1023200086ED95E00E945B03E80EF91E20E030E0A8
:1023300040E251E4C301B2010E94BB1A2B013C01EF
:102340000E94411C4B01A12CB12C2AE0B501A40133
:1023500086ED95E00E949B03E80EF91EC501B401CD
:102360000E945A1A9B01AC01C301B2010E94CD1B0D
:1023700020E030E040E251E40E94BB1A0E94411C80
:10238000AB0160E070E02AE086ED95E00E949B03DF
:10239000E80EF91E6FEC71E086ED95E00E94860371
:1023A0008E0D9F1DFF90EF90DF90CF90BF90AF906C
:1023B0009F908F907F906F905F904F900895CF93F4
:1023C000DF93BC0186ED95E00E948603EC016FEC83
:1023D00071E086ED95E00E9486038C0F9D1FDF91D2
:1023E000CF91089543E861E88AE095E00E94660590
:1023F00062E18AE095E00E94950583FFF9CF48E00D
:1024000062E98AE095E00E94660581E090E0089527
:10241000CF93DF93CDB7DEB7C056D1090FB6F8948E
:10242000DEBF0FBECDBF789484B5826084BD84B515
:10243000816084BD85B5826085BD85B5816085BDBF
:1024400080916E00816080936E0010928100809177
:1024500081008260809381008091810081608093FF
:102460008100809180008160809380008091B10024
:1024700084608093B1008091B00081608093B0004F
:1024800080917A00846080937A0080917A008260E3
:1024900080937A0080917A00816080937A008091A5
:1024A0007A00806880937A001092C100E091CE0596
:1024B000F091CF05A089B18982E08C93A485B58580
:1024C0001C92A685B78580E18C93108EA489B5896E
:1024D00086E08C93A289B3898C9180618C93A289C8
:1024E000B3898C9188608C93A289B3898C91806820
:1024F0008C930288F389E02D80818F7D8083809189
:10250000CC05811107C081E08093CC0585EC95E076
:102510000E94780C8091E2059091E305DC0117960A
:102520002C911797211105C021E017962C930E943A
:10253000780C86ED95E00E94300980E290E00E94E0
:10254000381D9093E7058093E6058CE891E00E94A2
:10255000DF1125EC35E041E06BEA71E0CE01019638
:102560000E9485084091D4055091D5056091D00511
:102570007091D105CE0101960E941503CE010196FE
:102580000E94CC07CE0101960E9474086FEB71E0A7
:1025900086ED95E00E948603E091D605F091D7057F
:1025A0004091D4055091D5056091D0057091D10529
:1025B0000280F381E02D86ED95E009956FEC71E0E6
:1025C00086ED95E00E94860380E091E0E1E0F3E093
:1025D000DF019C011D9221503040E1F71C821B82DB
:1025E00088EE93E0A0E0B0E08D839E83AF83B88750
:1025F0008EE091E09A83898385EC95E09E878D87B4
:102600001A8A1B8A1C8A62ED71E0CE01855A9F4F9F
:102610000E948801BE01655A7F4FCE0101960E943B
:102620003B07CE01855A9F4F0E94830166ED71E002
:10263000CE01855A9F4F0E948801BE01655A7F4F87
:10264000CE0101960E94ED06CE01855A9F4F0E9451
:1026500083016AED71E0CE01855A9F4F0E94880187
:10266000BE01655A7F4FCE0101960E94ED06CE0154
:10267000855A9F4F0E948301CE0101960E945D06FC
:1026800001E013E0CE0101960E9467078B89882341
:1026900061F0B3E00A301B0741F0CE0101960E94C1
:1026A000AA07D8018D938D01EDCF81E093E00E94C0
:1026B00071186093F4027093F5028093F602909380
:1026C000F702CE0101960E943B0680E091E0E1E036
:1026D000F3E0DF019C011D9221503040E1F762EDF3
:1026E00071E0CE01855A9F4F0E948801BE01655A54
:1026F0007F4FCE0101960E943B07CE01855A9F4F26
:102700000E94830166ED71E0CE01855A9F4F0E94C1
:102710008801BE01655A7F4FCE0101960E94ED06E9
:10272000CE01855A9F4F0E94830169E472E0CE0179
:10273000855A9F4F0E948801BE01655A7F4FCE0186
:1027400001960E94ED06CE01855A9F4F0E9483019B
:10275000CE0101960E945D0601E013E0CE010196D4
:102760000E9467078B89882361F0F3E00B301F0715
:1027700041F0CE0101960E94AA07F80181938F01D2
:10278000EDCF81E093E00E9471186093FD02709399
:10279000FE028093FF0290930003CE0101960E94F7
:1027A0003B0680E091E0E1E0F3E0DF019C011D9257
:1027B00021503040E1F762ED71E0CE01855A9F4F24
:1027C0000E948801BE01655A7F4FCE0101960E948A
:1027D0003B07CE01855A9F4F0E94830166ED71E051
:1027E000CE01855A9F4F0E948801BE01655A7F4FD6
:1027F000CE0101960E94ED06CE01855A9F4F0E94A0
:10280000830164E672E0CE01855A9F4F0E948801E1
:10281000BE01655A7F4FCE0101960E94ED06CE01A2
:10282000855A9F4F0E948301CE0101960E945D064A
:1028300001E013E0CE0101960E9467078B8988238F
:1028400061F0B3E004301B0741F0CE0101960E9415
:10285000AA07D8018D938D01EDCF81E093E00E940E
:1028600075181816190614F087E090E09093F90295
:102870008093F802CE0101960E943B0680E091E031
:10288000E1E0F3E0DF019C011D9221503040E1F7CF
:1028900062ED71E0CE01855A9F4F0E948801BE0112
:1028A000655A7F4FCE0101960E943B07CE01855AA3
:1028B0009F4F0E94830166ED71E0CE01855A9F4FC4
:1028C0000E948801BE01655A7F4FCE0101960E9489
:1028D000ED06CE01855A9F4F0E94830165EF71E09E
:1028E000CE01855A9F4F0E948801BE01655A7F4FD5
:1028F000CE0101960E94ED06CE01855A9F4F0E949F
:102900008301CE0101960E945D0601E013E0CE0135
:1029100001960E9467078B89882361F0B3E003303A
:102920001B0741F0CE0101960E94AA07D8018D93A2
:102930008D01EDCF81E093E00E9475189093F30232
:102940008093F202CE0101960E943B0680E091E066
:10295000E1E0F3E0DF019C011D9221503040E1F7FE
:1029600062ED71E0CE01855A9F4F0E948801BE0141
:10297000655A7F4FCE0101960E943B07CE01855AD2
:102980009F4F0E94830166ED71E0CE01855A9F4FF3
:102990000E948801BE01655A7F4FCE0101960E94B8
:1029A000ED06CE01855A9F4F0E94830165E772E0D4
:1029B000CE01855A9F4F0E948801BE01655A7F4F04
:1029C000CE0101960E94ED06CE01855A9F4F0E94CE
:1029D0008301CE0101960E945D0601E013E0CE0165
:1029E00001960E9467078B89882361F0F3E0063027
:1029F0001F0741F0CE0101960E94AA07F8018193BA
:102A00008F01EDCF81E093E00E9493186093EA027A
:102A10007093EB028093EC029093ED02CE0101964D
:102A20000E943B0680E091E0E1E0F3E0DF019C01E1
:102A30001D9221503040E1F762ED71E0CE01855AE0
:102A40009F4F0E948801BE01655A7F4FCE010196BB
:102A50000E943B07CE01855A9F4F0E94830166ED7D
:102A600071E0CE01855A9F4F0E948801BE01655AD0
:102A70007F4FCE0101960E94ED06CE01855A9F4FF1
:102A80000E9483016CE872E0CE01855A9F4F0E943C
:102A90008801BE01655A7F4FCE0101960E94ED0666
:102AA000CE01855A9F4F0E948301CE0101960E945C
:102AB0005D0601E013E0CE0101960E9467078B8955
:102AC000882361F0B3E003301B0741F0CE0101968B
:102AD0000E94AA07D8018D938D01EDCF81E093E08C
:102AE0000E9475188A30910508F4B5C188E498EE03
:102AF000A1E0B0E08093EE029093EF02A093F00289
:102B0000B093F102CE0101960E943B068EE091E067
:102B10009A838983CE0101960E943B0666E171E0AB
:102B200086ED95E00E9462036091F4027091F502D7
:102B30008091F6029091F7020E94091167E071E01E
:102B400086ED95E00E9462036091FD027091FE02A5
:102B50008091FF02909100030E94091165EF70E0DF
:102B600086ED95E00E9462036091F8027091F9028F
:102B700086ED95E00E94D21065EE70E086ED95E05E
:102B80000E9462036091F2027091F30286ED95E07B
:102B90000E94D21069ED70E086ED95E00E9462031C
:102BA0006091EE027091EF028091F0029091F1023B
:102BB0000E949B1068EC70E086ED95E00E94620335
:102BC0006091EA027091EB028091EC029091ED022B
:102BD0000E949B106091F4027091F5028091F602C0
:102BE0009091F7020E943A1C6B017C0180911805BC
:102BF0000E947C1080911A050E947C1060E08091F8
:102C00001A050E943C046AE070E080E090E00E94B7
:102C1000880461E080911A050E943C046AE070E03B
:102C200080E090E00E94880461E0809118050E9495
:102C30003C041FB7F8948091FC02811124C0EAEB98
:102C4000F1E08491EEECF1E09491E82FF0E0EE0FEA
:102C5000FF1FEA55FE4FA591B491EC91E92321F4B1
:102C600061E08AE00E943C048AE00E947C108CB5FE
:102C700080618CBD8CB580648CBD8DE00E947C1021
:102C80008BE00E947C108091FC028F5F8093FC029D
:102C90001FBF62E48AE095E00E949505823109F049
:102CA0000CC140E861E88AE095E00E946605C70132
:102CB000B6010E94201040E06EE88AE095E00E9494
:102CC000660540E06FE88AE095E00E9466056CE0EA
:102CD0008AE095E00E949505482F43606CE88AE001
:102CE00095E00E94660544E066EA8AE095E00E946D
:102CF00066054FE869E88AE095E00E94660541E8CC
:102D000061E88AE095E00E9466050E94710D68EE18
:102D100073E080E090E00E94880481E0C82E83E0A8
:102D2000D82E212C332433948091FA029091FB0207
:102D3000892B19F40E948A0E8BC00E94C2044B0199
:102D40005C012B013C01481859086A087B08F0E136
:102D50004F16F7E25F06610471040CF075C00E9423
:102D6000C2042B013C0125EC35E040E06CE072E050
:102D7000CE0101960E948508F60191011192215021
:102D80003040E1F701E013E0E12CF12CCE01019697
:102D90000E94FF078D85882379F0E114E1E0FE06AB
:102DA00059F0CE0101960E945C08D8018D938D01E7
:102DB000BFEFEB1AFB0AEACFCE0101960E94CC07C7
:102DC00030E2E316F1040CF47DC0CE0101960E94BE
:102DD00074088CE192E00E94DF1160ED77E080E002
:102DE00090E00E94880481E392E00E94DF110E943B
:102DF000C2044B015C0182E691E00E940D10C50106
:102E0000B4012B013C01481859086A087B0824EFDB
:102E1000421621E05206610471040CF458C08EE49D
:102E200091E00E940D106AE070E080E090E00E9466
:102E300088048091F8029091F902099709F05FC027
:102E400085E291E00E940D101092FB021092FA02AE
:102E50000E94990269CFFC01EC5CFF4F0C949C1C12
:102E600088E79EE1A0E0B0E045CE80EA98E2A0E0ED
:102E7000B0E040CE80EF9CE3A0E0B0E03BCE80E449
:102E800091E5A0E0B0E036CE82E19AE7A0E0B0E0C4
:102E900031CE84EE92EAA0E0B0E02CCE84E294EF52
:102EA000A0E0B0E027CE80E990EDA3E0B0E022CE34
:102EB00080E291EAA7E0B0E01DCE87EB90E00E94AF
:102EC0000D1023CFCE0101960E9474083CCF0E94C2
:102ED000580D892B09F09BCF0E94180161E073E027
:102EE0008AE095E00E9486030E94F2116AE070E099
:102EF00080E090E00E9488040E94C20482CF0E9479
:102F0000C2044B015C016091FD027091FE02809150
:102F1000FF02909100030E943A1C0E94201089E059
:102F200090E00E947F0F62E070E080E090E00E94FD
:102F3000880488E391E00E940D10C501B4012B01C3
:102F40003C01481859086A087B0834EF431631E001
:102F50005306610471040CF073CF0E94580D892B45
:102F6000A1F70E94180161E073E08AE095E00E94F9
:102F700086030E94F2116AE070E080E090E00E9417
:102F800088040E94C204DBCF80ED95E00E9483019B
:102F90008EE791E09093D7058093D60586ED95E076
:102FA0000C943009CF93DF93E8E2F5E013821282AC
:102FB00048EE53E060E070E0448355836683778396
:102FC0008CE391E09183808385EC90E09587848702
:102FD00084EC90E09787868780EC90E0918B808BE3
:102FE00081EC90E0938B828B82EC90E0958B848BCC
:102FF00086EC90E0978B868B118E128E138E148E3A
:10300000AAE0B5E013961C921E9212978EE491E00E
:1030100011969C938E9380E51C968C931C9781E06F
:103020001D968C931D972AE030E01F963C932E93BB
:103030001E9729E030E051963C932E93509722E062
:1030400030E053963C932E93529755961C921E92C5
:10305000549757961C921E92569759961C921E9200
:1030600058975B961C921E925A9714961D921D9229
:103070001D921C921797C5ECD5E0D0932705C093FD
:103080002605A6EDB5E013961C921E921297149693
:103090004D935D936D937C9317972EE731E01196D6
:1030A0003C932E931D96DC93CE931C971E961C92F8
:1030B0001E971F961C921F9751961C921E92509716
:1030C00052968C931882FE83ED831F821886FA87AE
:1030D000E9876AEC72E080ED95E0DF91CF910C9486
:1030E0008801662777270C94D718FC018827992731
:1030F000E89421912032E9F3293010F02E30C8F302
:103100002B3241F02D3239F4689404C00E94CF185C
:10311000820F911D219120532A30C0F31EF4909507
:1031200081959F4F08951F93FC0199278827BC0123
:10313000E89411911032E9F3193010F01E30C8F301
:103140001B3251F01D3249F4689406C00E94BA182F
:10315000610F711D811D911D119110531A30B0F333
:103160003EF490958095709561957F4F8F4F9F4F5E
:103170001F910895592F482F372F262F660F771F3D
:10318000881F991F660F771F881F991F620F731F73
:10319000841F951F660F771F881F991F08957AE077
:1031A000979F902D879F802D910D11240895A0E069
:1031B000B0E0EDEDF8E10C948B1BEC017B016115A7
:1031C000710519F0DB018D939C938E010F5F1F4FEA
:1031D0007880872D90E00E94341A892B11F0E80145
:1031E000F4CFBDE27B1205C00F5F1F4F7980C1E0B5
:1031F00008C0EBE27E1204C08E010E5F1F4F798083
:10320000C0E06801F1E0CF1AD10843E050E064E883
:1032100070E0C6010E943D1A892BF1F4680122E09A
:10322000C20ED11C45E050E06FE770E0C6010E947D
:103230003D1A892B21F4680187E0C80ED11CE114E6
:10324000F10419F0D701CD92DC92C111FFC060E00A
:1032500070E080E89FE703C143E050E06CE770E076
:10326000C6010E943D1A892B51F4E114F10409F4BE
:10327000F2C00E5F1F4FF70111830083ECC068019D
:1032800060E070E0CB0100E010E0F601D0EDD70D7A
:10329000DA3058F52C2F2260622E2C2F2870C2FFB6
:1032A00005C0211128C00F5F1F4F25C0222311F038
:1032B00001501109A5E0B0E09B01AC010E947C1B0C
:1032C0004B015C01880C991CAA1CBB1CC501B401F4
:1032D0006D0F711D811D911D6839A9E97A078A0753
:1032E000A9E19A0740F0C66005C0DE3F51F4C3FD76
:1032F00044C0C8606C2EBFEFCB1ADB0A7080C62DAD
:10330000C4CF2D2F2F7D2531C1F540814D3211F4D1
:10331000C06106C04B3221F0319621E030E006C09A
:103320003296D60111964C9122E030E0A0EDA40F28
:10333000AA3018F0E21BF30B20C040E050E0403808
:10334000BCE05B075CF49A01220F331F220F331F8E
:10335000420F531F440F551F4A0F511D3196DF0175
:1033600011972C91A0EDA20FAA3048F3C4FF03C01F
:10337000519541955109040F151FC1FF07C0E11474
:10338000F10421F03197D701ED93FC930E945A1A72
:10339000C370C33019F06B017C0106C06B017C0166
:1033A000F7FAF094F7F8F09420E030E0A901C701B3
:1033B000B6010E94551A882309F445C017FF06C0BC
:1033C000119501951109CBE9D0E002C0C3EBD0E023
:1033D0005E01B8E1AB1AB1084601BE2DAF2D90E2F7
:1033E000E92EF12C0E151F0584F0FE012591359173
:1033F00045915491B4018B2F9A2F0E94BB1A4B0117
:10340000B82FA92F0E191F09EDCF2497F594E79433
:10341000CA15DB0539F76401EB2EFA2E8E2D880FC5
:103420008F2D881F8F3F49F020E030E0A901C701B0
:10343000B6010E94551A811106C082E290E0909375
:10344000EE058093ED05C701B60109C060E070E0AC
:1034500080E89FEF04C060E070E080EC9FE7CDB7AC
:10346000DEB7EEE00C94A71B91110C94281B803260
:1034700019F089508550C8F70895FB01DC014150CF
:10348000504088F08D9181341CF08B350CF4805EB7
:10349000659161341CF06B350CF4605E861B611124
:1034A00071F3990B0895881BFCCF0E94971A08F4BA
:1034B00081E00895E89409C097FB3EF490958095CB
:1034C000709561957F4F8F4F9F4F9923A9F0F92FEA
:1034D00096E9BB279395F695879577956795B79568
:1034E000F111F8CFFAF4BB0F11F460FF1BC06F5F4E
:1034F0007F4F8F4F9F4F16C0882311F096E911C060
:10350000772321F09EE8872F762F05C0662371F080
:1035100096E8862F70E060E02AF09A95660F771F94
:10352000881FDAF7880F9695879597F90895990F70
:103530000008550FAA0BE0E8FEEF16161706E8077D
:10354000F907C0F012161306E407F50798F0621B9E
:10355000730B840B950B39F40A2661F0232B242B73
:10356000252B21F408950A2609F4A140A6958FEF92
:10357000811D811D08950E94CE1A0C94421B0E9449
:10358000341B38F00E943B1B20F0952311F00C9463
:103590002B1B0C94311B11240C94761B0E94531B83
:1035A00070F3959FC1F3950F50E0551F629FF00196
:1035B000729FBB27F00DB11D639FAA27F00DB11DAF
:1035C000AA1F649F6627B00DA11D661F829F222738
:1035D000B00DA11D621F739FB00DA11D621F839FBF
:1035E000A00D611D221F749F3327A00D611D231F95
:1035F000849F600D211D822F762F6A2F11249F57E3
:1036000050409AF0F1F088234AF0EE0FFF1FBB1FE5
:10361000661F771F881F91505040A9F79E3F5105A4
:1036200080F00C942B1B0C94761B5F3FE4F3983EC8
:10363000D4F3869577956795B795F795E7959F5F4E
:10364000C1F7FE2B880F911D9695879597F90895E0
:1036500099278827089597F99F6780E870E060E0D0
:1036600008959FEF80EC089500240A94161617061B
:1036700018060906089500240A9412161306140663
:1036800005060895092E0394000C11F4882352F0C6
:10369000BB0F40F4BF2B11F460FF04C06F5F7F4F7E
:1036A0008F4F9F4F089557FD9058440F551F59F065
:1036B0005F3F71F04795880F97FB991F61F09F3F1F
:1036C00079F087950895121613061406551FF2CF48
:1036D0004695F1DF08C0161617061806991FF1CF98
:1036E00086957105610508940895E894BB276627BF
:1036F0007727CB0197F908950E94BE1BA59F900DD7
:10370000B49F900DA49F800D911D112408952F92B8
:103710003F924F925F926F927F928F929F92AF9261
:10372000BF92CF92DF92EF92FF920F931F93CF93AE
:10373000DF93CDB7DEB7CA1BDB0B0FB6F894DEBF45
:103740000FBECDBF09942A88398848885F846E846B
:103750007D848C849B84AA84B984C884DF80EE80B5
:10376000FD800C811B81AA81B981CE0FD11D0FB6BE
:10377000F894DEBF0FBECDBFED010895A29FB0014A
:10378000B39FC001A39F700D811D1124911DB29F95
:10379000700D811D1124911D08955058BB27AA2733
:1037A0000E94E51B0C94421B0E94341B38F00E94BF
:1037B0003B1B20F039F49F3F19F426F40C94311B85
:1037C0000EF4E095E7FB0C942B1BE92F0E94531B92
:1037D00058F3BA17620773078407950720F079F446
:1037E000A6F50C94751B0EF4E0950B2EBA2FA02DA8
:1037F0000B01B90190010C01CA01A0011124FF279E
:10380000591B99F0593F50F4503E68F11A16F04098
:10381000A22F232F342F4427585FF3CF4695379597
:103820002795A795F0405395C9F77EF41F16BA0B5C
:10383000620B730B840BBAF09150A1F0FF0FBB1F0A
:10384000661F771F881FC2F70EC0BA0F621F731F53
:10385000841F48F4879577956795B795F7959E3FB0
:1038600008F0B0CF9395880F08F09927EE0F979541
:10387000879508950E94411C6894B1110C94761BA1
:1038800008950E945B1B88F09F5798F0B92F9927E5
:10389000B751B0F0E1F0660F771F881F991F1AF03B
:1038A000BA95C9F714C0B13091F00E94751BB1E010
:1038B00008950C94751B672F782F8827B85F39F00F
:1038C000B93FCCF3869577956795B395D9F73EF4D4
:1038D00090958095709561957F4F8F4F9F4F08957C
:1038E0000E94971A08F48FEF08950E94971A880B88
:1038F000990B0895A1E21A2EAA1BBB1BFD010DC056
:10390000AA1FBB1FEE1FFF1FA217B307E407F5078F
:1039100020F0A21BB30BE40BF50B661F771F881F6B
:10392000991F1A9469F760957095809590959B0101
:10393000AC01BD01CF010895EE0FFF1F0590F4917A
:10394000E02D0994689401C0E8948F929F92CF93E0
:10395000DF930E94B01CDF91CF919F908F900895CC
:1039600088249924F401E401B0E49F93AA279A15CE
:103970008B049C04ED05FE05CF05D007A10798F444
:10398000AD2FDC2FCF2FFE2FE92D982C892E982FCD
:10399000872F762F652F542F432F322F2227B85091
:1039A00031F7BF9127C01B2EBF91BB27220F331FBA
:1039B000441F551F661F771F881F991F881C991C5D
:1039C000EE1FFF1FCC1FDD1FAA1FBB1F8A149B0405
:1039D000EC05FD05CE05DF05A007B10748F08A1804
:1039E0009B08EC09FD09CE09DF09A00BB10B216092
:1039F0001A94E1F62EF49401AF01BE01CD01000C42
:103A000008950F93083090F0982F872F762F652F09
:103A1000542F432F322F22270850F4CF220F331F69
:103A2000441F551F661F771F881F991F0A95B2F7FD
:103A30000F91089597FB10F8169400080F93083023
:103A400098F00850232F342F452F562F672F782FAB
:103A5000892F902DF4CF0594979587957795679545
:103A600057954795379527950A95AAF70F91089589
:103A7000CF93DF938230910510F482E090E0E091E3
:103A8000F105F091F20520E030E0C0E0D0E03097A1
:103A900011F14081518148175907C0F04817590763
:103AA00061F482819381209719F09B838A832BC0D4
:103AB0009093F2058093F10526C02115310519F088
:103AC0004217530718F49A01BE01DF01EF0102808B
:103AD000F381E02DDCCF2115310509F1281B390BCD
:103AE0002430310590F412968D919C9113976115B5
:103AF000710521F0FB019383828304C09093F2054A
:103B00008093F105FD01329644C0FD01E20FF31FE1
:103B100081939193225031092D933C933AC0209187
:103B2000EF053091F005232B41F4209106013091EF
:103B300007013093F0052093EF05209104013091A7
:103B400005012115310541F42DB73EB7409108011B
:103B500050910901241B350BE091EF05F091F00520
:103B6000E217F307A0F42E1B3F0B2817390778F054
:103B7000AC014E5F5F4F2417350748F04E0F5F1FB3
:103B80005093F0054093EF058193919302C0E0E0DC
:103B9000F0E0CF01DF91CF9108950F931F93CF9362
:103BA000DF93009709F48CC0FC01329713821282D4
:103BB0000091F1051091F2050115110581F42081A4
:103BC0003181820F931F2091EF053091F005281766
:103BD000390779F5F093F005E093EF0571C0D8014E
:103BE00040E050E0AE17BF0750F412962D913C9183
:103BF0001397AD012115310509F1D901F3CF9D01CD
:103C0000DA013383228360817181860F971F8217C7
:103C1000930769F4EC0128813981260F371F2E5F45
:103C20003F4F318320838A819B8193838283452BFD
:103C300029F4F093F205E093F10542C01396FC934A
:103C4000EE931297ED01499159919E01240F351F72
:103C5000E217F30771F480819181840F951F02961A
:103C600011969C938E938281938113969C938E934D
:103C70001297E0E0F0E0D80112968D919C91139795
:103C8000009719F0F8018C01F6CF8D919C91980165
:103C90002E5F3F4F820F931F2091EF053091F0056B
:103CA0002817390769F4309729F41092F205109219
:103CB000F10502C0138212821093F0050093EF0504
:103CC000DF91CF911F910F910895A0E0B0E0EBE656
:103CD000FEE10C948B1BEC01009721F4CB010E94B8
:103CE000381DB8C0FC01E60FF71F9C0122503109B6
:103CF000E217F30708F4ACC0D9010D911C9111979C
:103D000006171707B0F00530110508F49FC0C80169
:103D100004978617970708F499C002501109061BEB
:103D2000170B019311936D937C93CF010E94CD1DCE
:103D30008DC05B01A01AB10A4C01800E911EA091AA
:103D4000F105B091F20540E050E0E12CF12C109724
:103D500009F44AC0A815B905D1F56D907C9011976A
:103D6000630182E0C80ED11CCA14DB0480F1A301F8
:103D70004A195B096A0182E0C80ED11C1296BC90F8
:103D800012971396AC91B5E0CB16D10440F0B282F5
:103D9000A38351834083D9016D937C930AC00E5F46
:103DA0001F4FC301800F911FF90191838083EB2D79
:103DB000FA2FE114F10431F0D7011396FC93EE933E
:103DC000129744C0F093F205E093F1053FC08D9146
:103DD0009C9111974817590708F4AC017D01129680
:103DE0000D90BC91A02DB3CF8091EF059091F0057F
:103DF00088159905E1F446175707C8F48091040126
:103E000090910501009741F48DB79EB7409108014C
:103E100050910901841B950BE817F907C8F4F0933A
:103E2000F005E093EF05F901718360830FC0CB01CA
:103E30000E94381D7C01009759F0A801BE010E9424
:103E4000341FCE010E94CD1DC70104C0CE0102C0A7
:103E500080E090E0CDB7DEB7EEE00C94A71B81E0E8
:103E600090E0F8940C94441FFB01DC0102C0019027
:103E70000D9241505040D8F70895FB01DC010190AC
:103E80000D920020E1F7089510E0CDEED0E004C0DF
:103E9000FE010E949C1C2196CE3ED107C9F7F894E2
:023EA000FFCF52
:103EA200C802C8020000F305800000000000F8020A
:103EB2009D01BD09E002C207AA07970700000000A2
:103EC200E2021503BD09E1023F085C08490858589F
:103ED20058585858583130300000000030029D01C7
:103EE200C8017702F901D701EB0100000000CA0204
:103EF200F305BD09C902E205C705990500000000E6
:103F02002F019D01BD09BC092F012F012F010000C6
:103F120000002F019D01BD09BC0900000000380C02
:103F2200A50BBD09240CDA09C00974095374617226
:103F3200742053696D706C65207061636B657420C9
:103F4200666F727761726465722E002F7661722FCE
:103F52006176722F66775F76657273696F6E005352
:103F62006B657463682056657273696F6E3A000DF3
:103F72000A0075636900676574006C6F726177612E
:103F82006E2E726164696F2E72785F6672657175EA
:103F9200656E6379006C6F726177616E2E72616417
:103FA200696F2E636F646572617465002F7661724A
:103FB2002F696F742F646C646174610047657420AB
:103FC20053657276657220526573706F6E73652EDB
:103FD20000426567696E2073656E6420646F776E58
:103FE200207061636B65742E006C6F726177616E15
:103FF2002E726164696F2E74785F66726571756581
:104002006E6379006C6F726177616E2E72616469A2
:104012006F2E5346006C6F726177616E2E7261640F
:10402200696F2E707265616D626C65006C6F726192
:1040320077616E2E726164696F2E425700FE0073C3
:10404200697A653D002F7661722F696F742F646102
:104052007461002F7661722F696F742F63666764D3
:1040620061746100727373693D0073696E676C6598
:104072005F706B745F6677645F76303032006E61BA
:0A4082006E00696E66006F7666003E
:107E0000112484B714BE81FFF0D085E080938100F7
:107E100082E08093C00088E18093C10086E0809377
:107E2000C20080E18093C4008EE0C9D0259A86E02C
:107E300020E33CEF91E0309385002093840096BBD3
:107E4000B09BFECF1D9AA8958150A9F7CC24DD24C4
:107E500088248394B5E0AB2EA1E19A2EF3E0BF2EE7
:107E6000A2D0813461F49FD0082FAFD0023811F036
:107E7000013811F484E001C083E08DD089C08234E0
:107E800011F484E103C0853419F485E0A6D080C0E4
:107E9000853579F488D0E82EFF2485D0082F10E0AE
:107EA000102F00270E291F29000F111F8ED06801E7
:107EB0006FC0863521F484E090D080E0DECF843638
:107EC00009F040C070D06FD0082F6DD080E0C81688
:107ED00080E7D80618F4F601B7BEE895C0E0D1E017
:107EE00062D089930C17E1F7F0E0CF16F0E7DF06D8
:107EF00018F0F601B7BEE89568D007B600FCFDCFD4
:107F0000A601A0E0B1E02C9130E011968C91119780
:107F100090E0982F8827822B932B1296FA010C0160
:107F200087BEE89511244E5F5F4FF1E0A038BF0790
:107F300051F7F601A7BEE89507B600FCFDCF97BE46
:107F4000E89526C08437B1F42ED02DD0F82E2BD052
:107F50003CD0F601EF2C8F010F5F1F4F84911BD097
:107F6000EA94F801C1F70894C11CD11CFA94CF0C13
:107F7000D11C0EC0853739F428D08EE10CD085E9AC
:107F80000AD08FE07ACF813511F488E018D01DD067
:107F900080E101D065CF982F8091C00085FFFCCF94
:107FA0009093C60008958091C00087FFFCCF809118
:107FB000C00084FD01C0A8958091C6000895E0E648
:107FC000F0E098E1908380830895EDDF803219F02E
:107FD00088E0F5DFFFCF84E1DECF1F93182FE3DFCA
:107FE0001150E9F7F2DF1F91089580E0E8DFEE27F6
:047FF000FF270994CA
:027FFE00040479
:0400000300007E007B
:00000001FF
